{
  "contractName": "DStorage",
  "abi": [
    {
      "inputs": [],
      "stateMutability": "nonpayable",
      "type": "constructor"
    },
    {
      "anonymous": false,
      "inputs": [
        {
          "indexed": false,
          "internalType": "address payable",
          "name": "receiver",
          "type": "address"
        },
        {
          "indexed": false,
          "internalType": "address payable",
          "name": "sender",
          "type": "address"
        }
      ],
      "name": "FileShared",
      "type": "event"
    },
    {
      "anonymous": false,
      "inputs": [
        {
          "indexed": false,
          "internalType": "uint256",
          "name": "field",
          "type": "uint256"
        },
        {
          "indexed": false,
          "internalType": "string",
          "name": "fileHash",
          "type": "string"
        },
        {
          "indexed": false,
          "internalType": "uint256",
          "name": "fileSize",
          "type": "uint256"
        },
        {
          "indexed": false,
          "internalType": "string",
          "name": "fileType",
          "type": "string"
        },
        {
          "indexed": false,
          "internalType": "string",
          "name": "fileName",
          "type": "string"
        },
        {
          "indexed": false,
          "internalType": "string",
          "name": "fileDescription",
          "type": "string"
        },
        {
          "indexed": false,
          "internalType": "uint256",
          "name": "uploadTime",
          "type": "uint256"
        },
        {
          "indexed": false,
          "internalType": "address payable",
          "name": "uploader",
          "type": "address"
        }
      ],
      "name": "FileUploaded",
      "type": "event"
    },
    {
      "anonymous": false,
      "inputs": [
        {
          "indexed": false,
          "internalType": "string",
          "name": "userName",
          "type": "string"
        },
        {
          "indexed": false,
          "internalType": "address payable",
          "name": "owner",
          "type": "address"
        }
      ],
      "name": "UserAdded",
      "type": "event"
    },
    {
      "inputs": [
        {
          "internalType": "uint256",
          "name": "",
          "type": "uint256"
        }
      ],
      "name": "UserList",
      "outputs": [
        {
          "internalType": "string",
          "name": "userName",
          "type": "string"
        },
        {
          "internalType": "address payable",
          "name": "owner",
          "type": "address"
        }
      ],
      "stateMutability": "view",
      "type": "function",
      "constant": true
    },
    {
      "inputs": [],
      "name": "fileCount",
      "outputs": [
        {
          "internalType": "uint256",
          "name": "",
          "type": "uint256"
        }
      ],
      "stateMutability": "view",
      "type": "function",
      "constant": true
    },
    {
      "inputs": [
        {
          "internalType": "uint256",
          "name": "",
          "type": "uint256"
        }
      ],
      "name": "files",
      "outputs": [
        {
          "internalType": "uint256",
          "name": "field",
          "type": "uint256"
        },
        {
          "internalType": "string",
          "name": "fileHash",
          "type": "string"
        },
        {
          "internalType": "uint256",
          "name": "fileSize",
          "type": "uint256"
        },
        {
          "internalType": "string",
          "name": "fileType",
          "type": "string"
        },
        {
          "internalType": "string",
          "name": "fileName",
          "type": "string"
        },
        {
          "internalType": "string",
          "name": "fileDescription",
          "type": "string"
        },
        {
          "internalType": "uint256",
          "name": "uploadTime",
          "type": "uint256"
        },
        {
          "internalType": "address payable",
          "name": "uploader",
          "type": "address"
        }
      ],
      "stateMutability": "view",
      "type": "function",
      "constant": true
    },
    {
      "inputs": [],
      "name": "name",
      "outputs": [
        {
          "internalType": "string",
          "name": "",
          "type": "string"
        }
      ],
      "stateMutability": "view",
      "type": "function",
      "constant": true
    },
    {
      "inputs": [
        {
          "internalType": "address",
          "name": "",
          "type": "address"
        },
        {
          "internalType": "uint256",
          "name": "",
          "type": "uint256"
        }
      ],
      "name": "sharedFiles",
      "outputs": [
        {
          "internalType": "uint256",
          "name": "field",
          "type": "uint256"
        },
        {
          "internalType": "string",
          "name": "fileHash",
          "type": "string"
        },
        {
          "internalType": "uint256",
          "name": "fileSize",
          "type": "uint256"
        },
        {
          "internalType": "string",
          "name": "fileType",
          "type": "string"
        },
        {
          "internalType": "string",
          "name": "fileName",
          "type": "string"
        },
        {
          "internalType": "string",
          "name": "fileDescription",
          "type": "string"
        },
        {
          "internalType": "uint256",
          "name": "uploadTime",
          "type": "uint256"
        },
        {
          "internalType": "address payable",
          "name": "uploader",
          "type": "address"
        }
      ],
      "stateMutability": "view",
      "type": "function",
      "constant": true
    },
    {
      "inputs": [
        {
          "internalType": "address",
          "name": "",
          "type": "address"
        }
      ],
      "name": "sharedFilesCount",
      "outputs": [
        {
          "internalType": "uint256",
          "name": "",
          "type": "uint256"
        }
      ],
      "stateMutability": "view",
      "type": "function",
      "constant": true
    },
    {
      "inputs": [],
      "name": "userCount",
      "outputs": [
        {
          "internalType": "uint256",
          "name": "",
          "type": "uint256"
        }
      ],
      "stateMutability": "view",
      "type": "function",
      "constant": true
    },
    {
      "inputs": [
        {
          "internalType": "string",
          "name": "_userName",
          "type": "string"
        }
      ],
      "name": "addUser",
      "outputs": [],
      "stateMutability": "nonpayable",
      "type": "function"
    },
    {
      "inputs": [
        {
          "internalType": "address payable",
          "name": "receiver",
          "type": "address"
        },
        {
          "internalType": "uint256",
          "name": "i",
          "type": "uint256"
        }
      ],
      "name": "getSharedFilesName",
      "outputs": [
        {
          "internalType": "string",
          "name": "_fileName",
          "type": "string"
        }
      ],
      "stateMutability": "view",
      "type": "function",
      "constant": true
    },
    {
      "inputs": [
        {
          "internalType": "address payable",
          "name": "receiver",
          "type": "address"
        },
        {
          "internalType": "uint256",
          "name": "i",
          "type": "uint256"
        }
      ],
      "name": "getSharedFilesHash",
      "outputs": [
        {
          "internalType": "string",
          "name": "_fileHash",
          "type": "string"
        }
      ],
      "stateMutability": "view",
      "type": "function",
      "constant": true
    },
    {
      "inputs": [
        {
          "internalType": "address payable",
          "name": "receiver",
          "type": "address"
        },
        {
          "internalType": "uint256",
          "name": "i",
          "type": "uint256"
        }
      ],
      "name": "getSharedFilesSize",
      "outputs": [
        {
          "internalType": "uint256",
          "name": "_fileSize",
          "type": "uint256"
        }
      ],
      "stateMutability": "view",
      "type": "function",
      "constant": true
    },
    {
      "inputs": [
        {
          "internalType": "address payable",
          "name": "receiver",
          "type": "address"
        },
        {
          "internalType": "uint256",
          "name": "i",
          "type": "uint256"
        }
      ],
      "name": "getSharedFilesType",
      "outputs": [
        {
          "internalType": "string",
          "name": "_fileType",
          "type": "string"
        }
      ],
      "stateMutability": "view",
      "type": "function",
      "constant": true
    },
    {
      "inputs": [
        {
          "internalType": "address payable",
          "name": "receiver",
          "type": "address"
        },
        {
          "internalType": "uint256",
          "name": "i",
          "type": "uint256"
        }
      ],
      "name": "getSharedFilesDescription",
      "outputs": [
        {
          "internalType": "string",
          "name": "_fileDescription",
          "type": "string"
        }
      ],
      "stateMutability": "view",
      "type": "function",
      "constant": true
    },
    {
      "inputs": [
        {
          "internalType": "address payable",
          "name": "receiver",
          "type": "address"
        },
        {
          "internalType": "uint256",
          "name": "i",
          "type": "uint256"
        }
      ],
      "name": "getSharedFileUploadTime",
      "outputs": [
        {
          "internalType": "uint256",
          "name": "_fileUploadTime",
          "type": "uint256"
        }
      ],
      "stateMutability": "view",
      "type": "function",
      "constant": true
    },
    {
      "inputs": [
        {
          "internalType": "address payable",
          "name": "receiver",
          "type": "address"
        },
        {
          "internalType": "uint256",
          "name": "i",
          "type": "uint256"
        }
      ],
      "name": "getSharedFilesUploader",
      "outputs": [
        {
          "internalType": "address",
          "name": "_fileUploaderName",
          "type": "address"
        }
      ],
      "stateMutability": "view",
      "type": "function",
      "constant": true
    },
    {
      "inputs": [
        {
          "internalType": "address payable",
          "name": "receiver",
          "type": "address"
        },
        {
          "internalType": "string",
          "name": "_fileHash",
          "type": "string"
        },
        {
          "internalType": "uint256",
          "name": "_fileSize",
          "type": "uint256"
        },
        {
          "internalType": "string",
          "name": "_fileType",
          "type": "string"
        },
        {
          "internalType": "string",
          "name": "_fileName",
          "type": "string"
        },
        {
          "internalType": "string",
          "name": "_fileDescription",
          "type": "string"
        }
      ],
      "name": "shareFile",
      "outputs": [],
      "stateMutability": "nonpayable",
      "type": "function"
    },
    {
      "inputs": [
        {
          "internalType": "string",
          "name": "_fileHash",
          "type": "string"
        },
        {
          "internalType": "uint256",
          "name": "_fileSize",
          "type": "uint256"
        },
        {
          "internalType": "string",
          "name": "_fileType",
          "type": "string"
        },
        {
          "internalType": "string",
          "name": "_fileName",
          "type": "string"
        },
        {
          "internalType": "string",
          "name": "_fileDescription",
          "type": "string"
        }
      ],
      "name": "uploadFile",
      "outputs": [],
      "stateMutability": "nonpayable",
      "type": "function"
    }
  ],
  "bytecode": "0x60806040526040518060400160405280600881526020017f4453746f72616765000000000000000000000000000000000000000000000000815250600090816200004a9190620002e3565b50600060015560006005553480156200006257600080fd5b50620003ca565b600081519050919050565b7f4e487b7100000000000000000000000000000000000000000000000000000000600052604160045260246000fd5b7f4e487b7100000000000000000000000000000000000000000000000000000000600052602260045260246000fd5b60006002820490506001821680620000eb57607f821691505b602082108103620001015762000100620000a3565b5b50919050565b60008190508160005260206000209050919050565b60006020601f8301049050919050565b600082821b905092915050565b6000600883026200016b7fffffffffffffffffffffffffffffffffffffffffffffffffffffffffffffffff826200012c565b6200017786836200012c565b95508019841693508086168417925050509392505050565b6000819050919050565b6000819050919050565b6000620001c4620001be620001b8846200018f565b62000199565b6200018f565b9050919050565b6000819050919050565b620001e083620001a3565b620001f8620001ef82620001cb565b84845462000139565b825550505050565b600090565b6200020f62000200565b6200021c818484620001d5565b505050565b5b8181101562000244576200023860008262000205565b60018101905062000222565b5050565b601f82111562000293576200025d8162000107565b62000268846200011c565b8101602085101562000278578190505b6200029062000287856200011c565b83018262000221565b50505b505050565b600082821c905092915050565b6000620002b86000198460080262000298565b1980831691505092915050565b6000620002d38383620002a5565b9150826002028217905092915050565b620002ee8262000069565b67ffffffffffffffff8111156200030a576200030962000074565b5b620003168254620000d2565b6200032382828562000248565b600060209050601f8311600181146200035b576000841562000346578287015190505b620003528582620002c5565b865550620003c2565b601f1984166200036b8662000107565b60005b8281101562000395578489015182556001820191506020850194506020810190506200036e565b86831015620003b55784890151620003b1601f891682620002a5565b8355505b6001600288020188555050505b505050505050565b61201c80620003da6000396000f3fe608060405234801561001057600080fd5b506004361061010b5760003560e01c806356041432116100a2578063babe165511610071578063babe1655146102f9578063e82d9d331461032a578063f4c714b414610346578063f90e0a501461037d578063ff642ee3146103ad5761010b565b8063560414321461023257806379ad271f14610269578063849c563b14610299578063ba572639146102c95761010b565b806330ee3fb8116100de57806330ee3fb81461019857806343953519146101c857806347635c57146101e65780634b72569a146102025761010b565b806306fdde031461011057806307973ccf1461012e57806318b8275a1461014c5780631e57e51d14610168575b600080fd5b6101186103dd565b60405161012591906115ed565b60405180910390f35b61013661046b565b6040516101439190611628565b60405180910390f35b6101666004803603810190610161919061178c565b610471565b005b610182600480360381019061017d919061185f565b6105ac565b60405161018f9190611628565b60405180910390f35b6101b260048036038101906101ad919061185f565b610619565b6040516101bf91906118c0565b60405180910390f35b6101d06106a6565b6040516101dd9190611628565b60405180910390f35b61020060048036038101906101fb91906118db565b6106ac565b005b61021c60048036038101906102179190611a04565b610900565b6040516102299190611628565b60405180910390f35b61024c60048036038101906102479190611a31565b610918565b604051610260989796959493929190611a80565b60405180910390f35b610283600480360381019061027e919061185f565b610bbd565b6040516102909190611628565b60405180910390f35b6102b360048036038101906102ae919061185f565b610c2a565b6040516102c091906115ed565b60405180910390f35b6102e360048036038101906102de919061185f565b610d1f565b6040516102f091906115ed565b60405180910390f35b610313600480360381019061030e9190611b1a565b610e14565b604051610321929190611b47565b60405180910390f35b610344600480360381019061033f9190611b77565b610ee0565b005b610360600480360381019061035b9190611b1a565b6110eb565b604051610374989796959493929190611a80565b60405180910390f35b6103976004803603810190610392919061185f565b611373565b6040516103a491906115ed565b60405180910390f35b6103c760048036038101906103c2919061185f565b611468565b6040516103d491906115ed565b60405180910390f35b600080546103ea90611c91565b80601f016020809104026020016040519081016040528092919081815260200182805461041690611c91565b80156104635780601f1061043857610100808354040283529160200191610463565b820191906000526020600020905b81548152906001019060200180831161044657829003601f168201915b505050505081565b60015481565b600073ffffffffffffffffffffffffffffffffffffffff163373ffffffffffffffffffffffffffffffffffffffff16036104aa57600080fd5b60008151116104b857600080fd5b600160008154809291906104cb90611cf1565b919050555060405180604001604052808281526020013373ffffffffffffffffffffffffffffffffffffffff1681525060026000600154815260200190815260200160002060008201518160000190816105259190611ee5565b5060208201518160010160006101000a81548173ffffffffffffffffffffffffffffffffffffffff021916908373ffffffffffffffffffffffffffffffffffffffff1602179055509050507fa9f30653d8449c84b5b92a43e719ff26da48571661b3093c672cec7f62df636181336040516105a1929190611b47565b60405180910390a150565b6000600360008473ffffffffffffffffffffffffffffffffffffffff1673ffffffffffffffffffffffffffffffffffffffff16815260200190815260200160002082815481106105ff576105fe611fb7565b5b906000526020600020906008020160020154905092915050565b6000600360008473ffffffffffffffffffffffffffffffffffffffff1673ffffffffffffffffffffffffffffffffffffffff168152602001908152602001600020828154811061066c5761066b611fb7565b5b906000526020600020906008020160070160009054906101000a900473ffffffffffffffffffffffffffffffffffffffff16905092915050565b60055481565b60008551116106ba57600080fd5b60008351116106c857600080fd5b60008151116106d657600080fd5b60008251116106e457600080fd5b600073ffffffffffffffffffffffffffffffffffffffff163373ffffffffffffffffffffffffffffffffffffffff160361071d57600080fd5b6000841161072a57600080fd5b600460008773ffffffffffffffffffffffffffffffffffffffff1673ffffffffffffffffffffffffffffffffffffffff168152602001908152602001600020600081548092919061077a90611cf1565b9190505550600360008773ffffffffffffffffffffffffffffffffffffffff1673ffffffffffffffffffffffffffffffffffffffff16815260200190815260200160002060405180610100016040528060055481526020018781526020018681526020018581526020018481526020018381526020014281526020013373ffffffffffffffffffffffffffffffffffffffff1681525090806001815401808255809150506001900390600052602060002090600802016000909190919091506000820151816000015560208201518160010190816108589190611ee5565b506040820151816002015560608201518160030190816108789190611ee5565b50608082015181600401908161088e9190611ee5565b5060a08201518160050190816108a49190611ee5565b5060c0820151816006015560e08201518160070160006101000a81548173ffffffffffffffffffffffffffffffffffffffff021916908373ffffffffffffffffffffffffffffffffffffffff1602179055505050505050505050565b60046020528060005260406000206000915090505481565b6003602052816000526040600020818154811061093457600080fd5b90600052602060002090600802016000915091505080600001549080600101805461095e90611c91565b80601f016020809104026020016040519081016040528092919081815260200182805461098a90611c91565b80156109d75780601f106109ac576101008083540402835291602001916109d7565b820191906000526020600020905b8154815290600101906020018083116109ba57829003601f168201915b5050505050908060020154908060030180546109f290611c91565b80601f0160208091040260200160405190810160405280929190818152602001828054610a1e90611c91565b8015610a6b5780601f10610a4057610100808354040283529160200191610a6b565b820191906000526020600020905b815481529060010190602001808311610a4e57829003601f168201915b505050505090806004018054610a8090611c91565b80601f0160208091040260200160405190810160405280929190818152602001828054610aac90611c91565b8015610af95780601f10610ace57610100808354040283529160200191610af9565b820191906000526020600020905b815481529060010190602001808311610adc57829003601f168201915b505050505090806005018054610b0e90611c91565b80601f0160208091040260200160405190810160405280929190818152602001828054610b3a90611c91565b8015610b875780601f10610b5c57610100808354040283529160200191610b87565b820191906000526020600020905b815481529060010190602001808311610b6a57829003601f168201915b5050505050908060060154908060070160009054906101000a900473ffffffffffffffffffffffffffffffffffffffff16905088565b6000600360008473ffffffffffffffffffffffffffffffffffffffff1673ffffffffffffffffffffffffffffffffffffffff1681526020019081526020016000208281548110610c1057610c0f611fb7565b5b906000526020600020906008020160060154905092915050565b6060600360008473ffffffffffffffffffffffffffffffffffffffff1673ffffffffffffffffffffffffffffffffffffffff1681526020019081526020016000208281548110610c7d57610c7c611fb7565b5b90600052602060002090600802016004018054610c9990611c91565b80601f0160208091040260200160405190810160405280929190818152602001828054610cc590611c91565b8015610d125780601f10610ce757610100808354040283529160200191610d12565b820191906000526020600020905b815481529060010190602001808311610cf557829003601f168201915b5050505050905092915050565b6060600360008473ffffffffffffffffffffffffffffffffffffffff1673ffffffffffffffffffffffffffffffffffffffff1681526020019081526020016000208281548110610d7257610d71611fb7565b5b90600052602060002090600802016005018054610d8e90611c91565b80601f0160208091040260200160405190810160405280929190818152602001828054610dba90611c91565b8015610e075780601f10610ddc57610100808354040283529160200191610e07565b820191906000526020600020905b815481529060010190602001808311610dea57829003601f168201915b5050505050905092915050565b6002602052806000526040600020600091509050806000018054610e3790611c91565b80601f0160208091040260200160405190810160405280929190818152602001828054610e6390611c91565b8015610eb05780601f10610e8557610100808354040283529160200191610eb0565b820191906000526020600020905b815481529060010190602001808311610e9357829003601f168201915b5050505050908060010160009054906101000a900473ffffffffffffffffffffffffffffffffffffffff16905082565b6000855111610eee57600080fd5b6000835111610efc57600080fd5b6000815111610f0a57600080fd5b6000825111610f1857600080fd5b600073ffffffffffffffffffffffffffffffffffffffff163373ffffffffffffffffffffffffffffffffffffffff1603610f5157600080fd5b60008411610f5e57600080fd5b60056000815480929190610f7190611cf1565b919050555060405180610100016040528060055481526020018681526020018581526020018481526020018381526020018281526020014281526020013373ffffffffffffffffffffffffffffffffffffffff16815250600660006005548152602001908152602001600020600082015181600001556020820151816001019081610ffc9190611ee5565b5060408201518160020155606082015181600301908161101c9190611ee5565b5060808201518160040190816110329190611ee5565b5060a08201518160050190816110489190611ee5565b5060c0820151816006015560e08201518160070160006101000a81548173ffffffffffffffffffffffffffffffffffffffff021916908373ffffffffffffffffffffffffffffffffffffffff1602179055509050507f6e95bbaa37a5fdec42a312e049dea2fe6160ebe659214d3409b4f91f164c2f52600554868686868642336040516110dc989796959493929190611a80565b60405180910390a15050505050565b600660205280600052604060002060009150905080600001549080600101805461111490611c91565b80601f016020809104026020016040519081016040528092919081815260200182805461114090611c91565b801561118d5780601f106111625761010080835404028352916020019161118d565b820191906000526020600020905b81548152906001019060200180831161117057829003601f168201915b5050505050908060020154908060030180546111a890611c91565b80601f01602080910402602001604051908101604052809291908181526020018280546111d490611c91565b80156112215780601f106111f657610100808354040283529160200191611221565b820191906000526020600020905b81548152906001019060200180831161120457829003601f168201915b50505050509080600401805461123690611c91565b80601f016020809104026020016040519081016040528092919081815260200182805461126290611c91565b80156112af5780601f10611284576101008083540402835291602001916112af565b820191906000526020600020905b81548152906001019060200180831161129257829003601f168201915b5050505050908060050180546112c490611c91565b80601f01602080910402602001604051908101604052809291908181526020018280546112f090611c91565b801561133d5780601f106113125761010080835404028352916020019161133d565b820191906000526020600020905b81548152906001019060200180831161132057829003601f168201915b5050505050908060060154908060070160009054906101000a900473ffffffffffffffffffffffffffffffffffffffff16905088565b6060600360008473ffffffffffffffffffffffffffffffffffffffff1673ffffffffffffffffffffffffffffffffffffffff16815260200190815260200160002082815481106113c6576113c5611fb7565b5b906000526020600020906008020160010180546113e290611c91565b80601f016020809104026020016040519081016040528092919081815260200182805461140e90611c91565b801561145b5780601f106114305761010080835404028352916020019161145b565b820191906000526020600020905b81548152906001019060200180831161143e57829003601f168201915b5050505050905092915050565b6060600360008473ffffffffffffffffffffffffffffffffffffffff1673ffffffffffffffffffffffffffffffffffffffff16815260200190815260200160002082815481106114bb576114ba611fb7565b5b906000526020600020906008020160030180546114d790611c91565b80601f016020809104026020016040519081016040528092919081815260200182805461150390611c91565b80156115505780601f1061152557610100808354040283529160200191611550565b820191906000526020600020905b81548152906001019060200180831161153357829003601f168201915b5050505050905092915050565b600081519050919050565b600082825260208201905092915050565b60005b8381101561159757808201518184015260208101905061157c565b60008484015250505050565b6000601f19601f8301169050919050565b60006115bf8261155d565b6115c98185611568565b93506115d9818560208601611579565b6115e2816115a3565b840191505092915050565b6000602082019050818103600083015261160781846115b4565b905092915050565b6000819050919050565b6116228161160f565b82525050565b600060208201905061163d6000830184611619565b92915050565b6000604051905090565b600080fd5b600080fd5b600080fd5b600080fd5b7f4e487b7100000000000000000000000000000000000000000000000000000000600052604160045260246000fd5b611699826115a3565b810181811067ffffffffffffffff821117156116b8576116b7611661565b5b80604052505050565b60006116cb611643565b90506116d78282611690565b919050565b600067ffffffffffffffff8211156116f7576116f6611661565b5b611700826115a3565b9050602081019050919050565b82818337600083830152505050565b600061172f61172a846116dc565b6116c1565b90508281526020810184848401111561174b5761174a61165c565b5b61175684828561170d565b509392505050565b600082601f83011261177357611772611657565b5b813561178384826020860161171c565b91505092915050565b6000602082840312156117a2576117a161164d565b5b600082013567ffffffffffffffff8111156117c0576117bf611652565b5b6117cc8482850161175e565b91505092915050565b600073ffffffffffffffffffffffffffffffffffffffff82169050919050565b6000611800826117d5565b9050919050565b611810816117f5565b811461181b57600080fd5b50565b60008135905061182d81611807565b92915050565b61183c8161160f565b811461184757600080fd5b50565b60008135905061185981611833565b92915050565b600080604083850312156118765761187561164d565b5b60006118848582860161181e565b92505060206118958582860161184a565b9150509250929050565b60006118aa826117d5565b9050919050565b6118ba8161189f565b82525050565b60006020820190506118d560008301846118b1565b92915050565b60008060008060008060c087890312156118f8576118f761164d565b5b600061190689828a0161181e565b965050602087013567ffffffffffffffff81111561192757611926611652565b5b61193389828a0161175e565b955050604061194489828a0161184a565b945050606087013567ffffffffffffffff81111561196557611964611652565b5b61197189828a0161175e565b935050608087013567ffffffffffffffff81111561199257611991611652565b5b61199e89828a0161175e565b92505060a087013567ffffffffffffffff8111156119bf576119be611652565b5b6119cb89828a0161175e565b9150509295509295509295565b6119e18161189f565b81146119ec57600080fd5b50565b6000813590506119fe816119d8565b92915050565b600060208284031215611a1a57611a1961164d565b5b6000611a28848285016119ef565b91505092915050565b60008060408385031215611a4857611a4761164d565b5b6000611a56858286016119ef565b9250506020611a678582860161184a565b9150509250929050565b611a7a816117f5565b82525050565b600061010082019050611a96600083018b611619565b8181036020830152611aa8818a6115b4565b9050611ab76040830189611619565b8181036060830152611ac981886115b4565b90508181036080830152611add81876115b4565b905081810360a0830152611af181866115b4565b9050611b0060c0830185611619565b611b0d60e0830184611a71565b9998505050505050505050565b600060208284031215611b3057611b2f61164d565b5b6000611b3e8482850161184a565b91505092915050565b60006040820190508181036000830152611b6181856115b4565b9050611b706020830184611a71565b9392505050565b600080600080600060a08688031215611b9357611b9261164d565b5b600086013567ffffffffffffffff811115611bb157611bb0611652565b5b611bbd8882890161175e565b9550506020611bce8882890161184a565b945050604086013567ffffffffffffffff811115611bef57611bee611652565b5b611bfb8882890161175e565b935050606086013567ffffffffffffffff811115611c1c57611c1b611652565b5b611c288882890161175e565b925050608086013567ffffffffffffffff811115611c4957611c48611652565b5b611c558882890161175e565b9150509295509295909350565b7f4e487b7100000000000000000000000000000000000000000000000000000000600052602260045260246000fd5b60006002820490506001821680611ca957607f821691505b602082108103611cbc57611cbb611c62565b5b50919050565b7f4e487b7100000000000000000000000000000000000000000000000000000000600052601160045260246000fd5b6000611cfc8261160f565b91507fffffffffffffffffffffffffffffffffffffffffffffffffffffffffffffffff8203611d2e57611d2d611cc2565b5b600182019050919050565b60008190508160005260206000209050919050565b60006020601f8301049050919050565b600082821b905092915050565b600060088302611d9b7fffffffffffffffffffffffffffffffffffffffffffffffffffffffffffffffff82611d5e565b611da58683611d5e565b95508019841693508086168417925050509392505050565b6000819050919050565b6000611de2611ddd611dd88461160f565b611dbd565b61160f565b9050919050565b6000819050919050565b611dfc83611dc7565b611e10611e0882611de9565b848454611d6b565b825550505050565b600090565b611e25611e18565b611e30818484611df3565b505050565b5b81811015611e5457611e49600082611e1d565b600181019050611e36565b5050565b601f821115611e9957611e6a81611d39565b611e7384611d4e565b81016020851015611e82578190505b611e96611e8e85611d4e565b830182611e35565b50505b505050565b600082821c905092915050565b6000611ebc60001984600802611e9e565b1980831691505092915050565b6000611ed58383611eab565b9150826002028217905092915050565b611eee8261155d565b67ffffffffffffffff811115611f0757611f06611661565b5b611f118254611c91565b611f1c828285611e58565b600060209050601f831160018114611f4f5760008415611f3d578287015190505b611f478582611ec9565b865550611faf565b601f198416611f5d86611d39565b60005b82811015611f8557848901518255600182019150602085019450602081019050611f60565b86831015611fa25784890151611f9e601f891682611eab565b8355505b6001600288020188555050505b505050505050565b7f4e487b7100000000000000000000000000000000000000000000000000000000600052603260045260246000fdfea2646970667358221220f611fb09d4c30c94d594ed2d59d8007e6fc8ce7b7f3794b83c17df2cd5be3be064736f6c63430008110033",
  "immutableReferences": {},
  "source": "// SPDX-License-Identifier: GPL-3.0\r\npragma solidity ^0.8.4;\r\n\r\ncontract DStorage {\r\n  string public name = \"DStorage\";// Name\r\n  uint public userCount=0;  //UserCount\r\n  mapping(uint =>User) public UserList; // mapping of users\r\n  mapping(address =>File[]) public sharedFiles;  // mapping of shared files\r\n  mapping(address=>uint) public sharedFilesCount;\r\n  uint public fileCount=0;  // Number of files\r\n  mapping(uint=>File) public files;// Mapping fileId=>Struct \r\n\r\n // Struct Files\r\n struct File{\r\n     uint field;\r\n     string fileHash;\r\n     uint fileSize;\r\n     string fileType;\r\n     string fileName;\r\n     string fileDescription;\r\n     uint uploadTime;\r\n     address payable uploader; \r\n   }\r\n  // Struct\r\n  struct User{\r\n    string userName;\r\n    address payable owner;\r\n  }\r\n\r\n  // Event\r\n  event FileUploaded(\r\n     uint field,\r\n     string fileHash,\r\n     uint fileSize,\r\n     string fileType,\r\n     string fileName,\r\n     string fileDescription,\r\n     uint uploadTime,\r\n     address payable uploader \r\n  );\r\n\r\n  event UserAdded(\r\n     string userName,\r\n     address payable owner\r\n  );\r\n\r\n  event FileShared(\r\n    address payable receiver,\r\n    address payable sender\r\n  );\r\n\r\n   // Add a User\r\n    function addUser(string memory _userName) public {\r\n  \r\n    require(msg.sender!=address(0));  //check if the address is valid\r\n  \r\n    require(bytes(_userName).length>0);   // Check if the username is valid\r\n    userCount++;\r\n    UserList[userCount] =  User(_userName,payable(msg.sender)); //adding user to mapping \r\n    emit UserAdded(_userName,payable(msg.sender));\r\n  }\r\n\r\n  function getSharedFilesName(address payable receiver,uint i) public view returns(string memory _fileName ) {\r\n    return(sharedFiles[receiver][i].fileName);\r\n  }\r\n  function getSharedFilesHash(address payable receiver,uint i) public view returns(string memory _fileHash ) {\r\n    return(sharedFiles[receiver][i].fileHash);\r\n  }\r\n  function getSharedFilesSize(address payable receiver,uint i) public view returns(uint _fileSize) {\r\n    return(sharedFiles[receiver][i].fileSize);\r\n  }\r\n  function getSharedFilesType(address payable receiver,uint i) public view returns(string memory _fileType) {\r\n    return(sharedFiles[receiver][i].fileType);\r\n  }\r\n  function getSharedFilesDescription(address payable receiver,uint i) public view returns(string memory _fileDescription ) {\r\n    return(sharedFiles[receiver][i].fileDescription);\r\n  }\r\n  function getSharedFileUploadTime(address payable receiver,uint i) public view returns(uint _fileUploadTime ) {\r\n    return(sharedFiles[receiver][i].uploadTime);\r\n  }  \r\n  function getSharedFilesUploader(address payable receiver,uint i) public view returns(address _fileUploaderName) {\r\n    return(sharedFiles[receiver][i].uploader);\r\n  }\r\n  //Get Shared Files\r\n  \r\n //Share a file \r\n  function shareFile(address payable receiver ,string memory _fileHash, uint _fileSize, string memory _fileType, string memory _fileName, string memory _fileDescription) public {\r\n    require((bytes(_fileHash).length>0)); // Make sure the file hash exists\r\n\r\n    require((bytes(_fileType).length>0)); // Make sure file type exists\r\n    \r\n    require((bytes(_fileDescription).length>0)); // Make sure file description exists\r\n   \r\n    require((bytes(_fileName).length>0));  // Make sure file fileName exists\r\n    \r\n    require(msg.sender!=address(0)); // Make sure uploader address exists\r\n    \r\n    require(_fileSize>0); // Make sure file size is more than 0\r\n\r\n     //Increasing shared files count\r\n     sharedFilesCount[receiver]++;\r\n\r\n     sharedFiles[receiver].push(File(fileCount,_fileHash,_fileSize,_fileType,_fileName,_fileDescription, block.timestamp ,payable(msg.sender)));\r\n  }\r\n\r\n// Upload File function\r\n  function uploadFile(string memory _fileHash, uint _fileSize, string memory _fileType, string memory _fileName, string memory _fileDescription) public {\r\n\r\n\r\n    require((bytes(_fileHash).length>0)); // Make sure the file hash exists\r\n\r\n    require((bytes(_fileType).length>0)); // Make sure file type exists\r\n    \r\n    require((bytes(_fileDescription).length>0)); // Make sure file description exists\r\n   \r\n    require((bytes(_fileName).length>0));  // Make sure file fileName exists\r\n    \r\n    require(msg.sender!=address(0)); // Make sure uploader address exists\r\n    \r\n    require(_fileSize>0); // Make sure file size is more than 0\r\n\r\n    fileCount++; // Increment file id\r\n\r\n    files[fileCount]=File(fileCount,_fileHash,_fileSize,_fileType,_fileName,_fileDescription, block.timestamp ,payable(msg.sender));  // Add File to the contract\r\n\r\n    emit FileUploaded(fileCount,_fileHash,_fileSize,_fileType,_fileName,_fileDescription, block.timestamp ,payable(msg.sender)); // Trigger an event\r\n  }\r\n  constructor()  {\r\n  }\r\n\r\n}",
  "sourcePath": "D:\\React\\varun\\SafeNSecure\\src\\contracts\\DStorage.sol",
  "compiler": {
    "name": "solc",
    "version": "0.8.17+commit.8df45f5f.Emscripten.clang"
  },
  "schemaVersion": "3.4.10",
  "updatedAt": "2022-11-05T08:16:03.007Z",
  "networkType": "ethereum",
  "devdoc": {
    "kind": "dev",
    "methods": {},
    "version": 1
  },
  "userdoc": {
    "kind": "user",
    "methods": {},
    "version": 1
  }
}